{
  "_format": "hh-sol-artifact-1",
  "contractName": "NFTMarketplace",
  "sourceName": "contracts/NFTMarketplace.sol",
  "abi": [
    {
      "inputs": [],
      "stateMutability": "nonpayable",
      "type": "constructor"
    },
    {
      "anonymous": false,
      "inputs": [
        {
          "indexed": true,
          "internalType": "address",
          "name": "owner",
          "type": "address"
        },
        {
          "indexed": true,
          "internalType": "address",
          "name": "approved",
          "type": "address"
        },
        {
          "indexed": true,
          "internalType": "uint256",
          "name": "tokenId",
          "type": "uint256"
        }
      ],
      "name": "Approval",
      "type": "event"
    },
    {
      "anonymous": false,
      "inputs": [
        {
          "indexed": true,
          "internalType": "address",
          "name": "owner",
          "type": "address"
        },
        {
          "indexed": true,
          "internalType": "address",
          "name": "operator",
          "type": "address"
        },
        {
          "indexed": false,
          "internalType": "bool",
          "name": "approved",
          "type": "bool"
        }
      ],
      "name": "ApprovalForAll",
      "type": "event"
    },
    {
      "anonymous": false,
      "inputs": [
        {
          "indexed": false,
          "internalType": "uint256",
          "name": "_fromTokenId",
          "type": "uint256"
        },
        {
          "indexed": false,
          "internalType": "uint256",
          "name": "_toTokenId",
          "type": "uint256"
        }
      ],
      "name": "BatchMetadataUpdate",
      "type": "event"
    },
    {
      "anonymous": false,
      "inputs": [
        {
          "indexed": true,
          "internalType": "uint256",
          "name": "tokenId",
          "type": "uint256"
        },
        {
          "indexed": false,
          "internalType": "address",
          "name": "seller",
          "type": "address"
        },
        {
          "indexed": false,
          "internalType": "address",
          "name": "owner",
          "type": "address"
        },
        {
          "indexed": false,
          "internalType": "uint256",
          "name": "price",
          "type": "uint256"
        },
        {
          "indexed": false,
          "internalType": "bool",
          "name": "sold",
          "type": "bool"
        }
      ],
      "name": "MarketItemCreated",
      "type": "event"
    },
    {
      "anonymous": false,
      "inputs": [
        {
          "indexed": false,
          "internalType": "uint256",
          "name": "_tokenId",
          "type": "uint256"
        }
      ],
      "name": "MetadataUpdate",
      "type": "event"
    },
    {
      "anonymous": false,
      "inputs": [
        {
          "indexed": true,
          "internalType": "address",
          "name": "from",
          "type": "address"
        },
        {
          "indexed": true,
          "internalType": "address",
          "name": "to",
          "type": "address"
        },
        {
          "indexed": true,
          "internalType": "uint256",
          "name": "tokenId",
          "type": "uint256"
        }
      ],
      "name": "Transfer",
      "type": "event"
    },
    {
      "inputs": [
        {
          "internalType": "address",
          "name": "to",
          "type": "address"
        },
        {
          "internalType": "uint256",
          "name": "tokenId",
          "type": "uint256"
        }
      ],
      "name": "approve",
      "outputs": [],
      "stateMutability": "nonpayable",
      "type": "function"
    },
    {
      "inputs": [
        {
          "internalType": "address",
          "name": "owner",
          "type": "address"
        }
      ],
      "name": "balanceOf",
      "outputs": [
        {
          "internalType": "uint256",
          "name": "",
          "type": "uint256"
        }
      ],
      "stateMutability": "view",
      "type": "function"
    },
    {
      "inputs": [
        {
          "internalType": "uint256",
          "name": "tokenId",
          "type": "uint256"
        }
      ],
      "name": "createMarketSale",
      "outputs": [],
      "stateMutability": "payable",
      "type": "function"
    },
    {
      "inputs": [
        {
          "internalType": "string",
          "name": "tokenURI",
          "type": "string"
        },
        {
          "internalType": "uint256",
          "name": "price",
          "type": "uint256"
        }
      ],
      "name": "createToken",
      "outputs": [
        {
          "internalType": "uint256",
          "name": "",
          "type": "uint256"
        }
      ],
      "stateMutability": "payable",
      "type": "function"
    },
    {
      "inputs": [],
      "name": "fetchItemsListed",
      "outputs": [
        {
          "components": [
            {
              "internalType": "uint256",
              "name": "tokenId",
              "type": "uint256"
            },
            {
              "internalType": "address payable",
              "name": "seller",
              "type": "address"
            },
            {
              "internalType": "address payable",
              "name": "owner",
              "type": "address"
            },
            {
              "internalType": "uint256",
              "name": "price",
              "type": "uint256"
            },
            {
              "internalType": "bool",
              "name": "sold",
              "type": "bool"
            }
          ],
          "internalType": "struct NFTMarketplace.MarketItem[]",
          "name": "",
          "type": "tuple[]"
        }
      ],
      "stateMutability": "view",
      "type": "function"
    },
    {
      "inputs": [],
      "name": "fetchMarketItems",
      "outputs": [
        {
          "components": [
            {
              "internalType": "uint256",
              "name": "tokenId",
              "type": "uint256"
            },
            {
              "internalType": "address payable",
              "name": "seller",
              "type": "address"
            },
            {
              "internalType": "address payable",
              "name": "owner",
              "type": "address"
            },
            {
              "internalType": "uint256",
              "name": "price",
              "type": "uint256"
            },
            {
              "internalType": "bool",
              "name": "sold",
              "type": "bool"
            }
          ],
          "internalType": "struct NFTMarketplace.MarketItem[]",
          "name": "",
          "type": "tuple[]"
        }
      ],
      "stateMutability": "view",
      "type": "function"
    },
    {
      "inputs": [],
      "name": "fetchMyNFTs",
      "outputs": [
        {
          "components": [
            {
              "internalType": "uint256",
              "name": "tokenId",
              "type": "uint256"
            },
            {
              "internalType": "address payable",
              "name": "seller",
              "type": "address"
            },
            {
              "internalType": "address payable",
              "name": "owner",
              "type": "address"
            },
            {
              "internalType": "uint256",
              "name": "price",
              "type": "uint256"
            },
            {
              "internalType": "bool",
              "name": "sold",
              "type": "bool"
            }
          ],
          "internalType": "struct NFTMarketplace.MarketItem[]",
          "name": "",
          "type": "tuple[]"
        }
      ],
      "stateMutability": "view",
      "type": "function"
    },
    {
      "inputs": [
        {
          "internalType": "uint256",
          "name": "tokenId",
          "type": "uint256"
        }
      ],
      "name": "getApproved",
      "outputs": [
        {
          "internalType": "address",
          "name": "",
          "type": "address"
        }
      ],
      "stateMutability": "view",
      "type": "function"
    },
    {
      "inputs": [
        {
          "internalType": "address",
          "name": "owner",
          "type": "address"
        },
        {
          "internalType": "address",
          "name": "operator",
          "type": "address"
        }
      ],
      "name": "isApprovedForAll",
      "outputs": [
        {
          "internalType": "bool",
          "name": "",
          "type": "bool"
        }
      ],
      "stateMutability": "view",
      "type": "function"
    },
    {
      "inputs": [],
      "name": "name",
      "outputs": [
        {
          "internalType": "string",
          "name": "",
          "type": "string"
        }
      ],
      "stateMutability": "view",
      "type": "function"
    },
    {
      "inputs": [
        {
          "internalType": "uint256",
          "name": "tokenId",
          "type": "uint256"
        }
      ],
      "name": "ownerOf",
      "outputs": [
        {
          "internalType": "address",
          "name": "",
          "type": "address"
        }
      ],
      "stateMutability": "view",
      "type": "function"
    },
    {
      "inputs": [
        {
          "internalType": "address",
          "name": "from",
          "type": "address"
        },
        {
          "internalType": "address",
          "name": "to",
          "type": "address"
        },
        {
          "internalType": "uint256",
          "name": "tokenId",
          "type": "uint256"
        }
      ],
      "name": "safeTransferFrom",
      "outputs": [],
      "stateMutability": "nonpayable",
      "type": "function"
    },
    {
      "inputs": [
        {
          "internalType": "address",
          "name": "from",
          "type": "address"
        },
        {
          "internalType": "address",
          "name": "to",
          "type": "address"
        },
        {
          "internalType": "uint256",
          "name": "tokenId",
          "type": "uint256"
        },
        {
          "internalType": "bytes",
          "name": "data",
          "type": "bytes"
        }
      ],
      "name": "safeTransferFrom",
      "outputs": [],
      "stateMutability": "nonpayable",
      "type": "function"
    },
    {
      "inputs": [
        {
          "internalType": "address",
          "name": "operator",
          "type": "address"
        },
        {
          "internalType": "bool",
          "name": "approved",
          "type": "bool"
        }
      ],
      "name": "setApprovalForAll",
      "outputs": [],
      "stateMutability": "nonpayable",
      "type": "function"
    },
    {
      "inputs": [
        {
          "internalType": "bytes4",
          "name": "interfaceId",
          "type": "bytes4"
        }
      ],
      "name": "supportsInterface",
      "outputs": [
        {
          "internalType": "bool",
          "name": "",
          "type": "bool"
        }
      ],
      "stateMutability": "view",
      "type": "function"
    },
    {
      "inputs": [],
      "name": "symbol",
      "outputs": [
        {
          "internalType": "string",
          "name": "",
          "type": "string"
        }
      ],
      "stateMutability": "view",
      "type": "function"
    },
    {
      "inputs": [
        {
          "internalType": "uint256",
          "name": "tokenId",
          "type": "uint256"
        }
      ],
      "name": "tokenURI",
      "outputs": [
        {
          "internalType": "string",
          "name": "",
          "type": "string"
        }
      ],
      "stateMutability": "view",
      "type": "function"
    },
    {
      "inputs": [
        {
          "internalType": "address",
          "name": "from",
          "type": "address"
        },
        {
          "internalType": "address",
          "name": "to",
          "type": "address"
        },
        {
          "internalType": "uint256",
          "name": "tokenId",
          "type": "uint256"
        }
      ],
      "name": "transferFrom",
      "outputs": [],
      "stateMutability": "nonpayable",
      "type": "function"
    }
  ],
  "bytecode": "0x60806040523480156200001157600080fd5b506040518060400160405280600881526020017f41757468576561720000000000000000000000000000000000000000000000008152506040518060400160405280600881526020017f4155544857454152000000000000000000000000000000000000000000000000815250816000908051906020019062000096929190620000f9565b508060019080519060200190620000af929190620000f9565b50505033600960006101000a81548173ffffffffffffffffffffffffffffffffffffffff021916908373ffffffffffffffffffffffffffffffffffffffff1602179055506200020e565b8280546200010790620001d8565b90600052602060002090601f0160209004810192826200012b576000855562000177565b82601f106200014657805160ff191683800117855562000177565b8280016001018555821562000177579182015b828111156200017657825182559160200191906001019062000159565b5b5090506200018691906200018a565b5090565b5b80821115620001a55760008160009055506001016200018b565b5090565b7f4e487b7100000000000000000000000000000000000000000000000000000000600052602260045260246000fd5b60006002820490506001821680620001f157607f821691505b60208210811415620002085762000207620001a9565b5b50919050565b613ac6806200021e6000396000f3fe6080604052600436106101095760003560e01c80636352211e11610095578063a22cb46511610064578063a22cb46514610384578063b88d4fde146103ad578063be9af536146103d6578063c87b56dd146103f2578063e985e9c51461042f57610109565b80636352211e146102af57806370a08231146102ec57806372b3b6201461032957806395d89b411461035957610109565b80630f08efe0116100dc5780630f08efe0146101dc578063202e37401461020757806323b872dd1461023257806342842e0e1461025b57806345f8fa801461028457610109565b806301ffc9a71461010e57806306fdde031461014b578063081812fc14610176578063095ea7b3146101b3575b600080fd5b34801561011a57600080fd5b506101356004803603810190610130919061283d565b61046c565b6040516101429190612885565b60405180910390f35b34801561015757600080fd5b506101606104cd565b60405161016d9190612939565b60405180910390f35b34801561018257600080fd5b5061019d60048036038101906101989190612991565b61055f565b6040516101aa91906129ff565b60405180910390f35b3480156101bf57600080fd5b506101da60048036038101906101d59190612a46565b6105a5565b005b3480156101e857600080fd5b506101f16106bd565b6040516101fe9190612bdc565b60405180910390f35b34801561021357600080fd5b5061021c610926565b6040516102299190612bdc565b60405180910390f35b34801561023e57600080fd5b5061025960048036038101906102549190612bfe565b610c14565b005b34801561026757600080fd5b50610282600480360381019061027d9190612bfe565b610c74565b005b34801561029057600080fd5b50610299610c94565b6040516102a69190612bdc565b60405180910390f35b3480156102bb57600080fd5b506102d660048036038101906102d19190612991565b610f82565b6040516102e391906129ff565b60405180910390f35b3480156102f857600080fd5b50610313600480360381019061030e9190612c51565b611009565b6040516103209190612c8d565b60405180910390f35b610343600480360381019061033e9190612ddd565b6110c1565b6040516103509190612c8d565b60405180910390f35b34801561036557600080fd5b5061036e611103565b60405161037b9190612939565b60405180910390f35b34801561039057600080fd5b506103ab60048036038101906103a69190612e65565b611195565b005b3480156103b957600080fd5b506103d460048036038101906103cf9190612f46565b6111ab565b005b6103f060048036038101906103eb9190612991565b61120d565b005b3480156103fe57600080fd5b5061041960048036038101906104149190612991565b6113e0565b6040516104269190612939565b60405180910390f35b34801561043b57600080fd5b5061045660048036038101906104519190612fc9565b6114f3565b6040516104639190612885565b60405180910390f35b6000634906490660e01b7bffffffffffffffffffffffffffffffffffffffffffffffffffffffff1916827bffffffffffffffffffffffffffffffffffffffffffffffffffffffff191614806104c657506104c582611587565b5b9050919050565b6060600080546104dc90613038565b80601f016020809104026020016040519081016040528092919081815260200182805461050890613038565b80156105555780601f1061052a57610100808354040283529160200191610555565b820191906000526020600020905b81548152906001019060200180831161053857829003601f168201915b5050505050905090565b600061056a82611669565b6004600083815260200190815260200160002060009054906101000a900473ffffffffffffffffffffffffffffffffffffffff169050919050565b60006105b082610f82565b90508073ffffffffffffffffffffffffffffffffffffffff168373ffffffffffffffffffffffffffffffffffffffff161415610621576040517f08c379a0000000000000000000000000000000000000000000000000000000008152600401610618906130dc565b60405180910390fd5b8073ffffffffffffffffffffffffffffffffffffffff166106406116b4565b73ffffffffffffffffffffffffffffffffffffffff16148061066f575061066e816106696116b4565b6114f3565b5b6106ae576040517f08c379a00000000000000000000000000000000000000000000000000000000081526004016106a59061316e565b60405180910390fd5b6106b883836116bc565b505050565b606060006106cb6007611775565b905060006106d96008611775565b6106e36007611775565b6106ed91906131bd565b90506000808267ffffffffffffffff81111561070c5761070b612cb2565b5b60405190808252806020026020018201604052801561074557816020015b6107326126d1565b81526020019060019003908161072a5790505b50905060005b8481101561091b573073ffffffffffffffffffffffffffffffffffffffff16600a600060018461077b91906131f1565b815260200190815260200160002060020160009054906101000a900473ffffffffffffffffffffffffffffffffffffffff1673ffffffffffffffffffffffffffffffffffffffff1614156109085760006001826107d891906131f1565b90506000600a60008381526020019081526020016000209050806040518060a0016040529081600082015481526020016001820160009054906101000a900473ffffffffffffffffffffffffffffffffffffffff1673ffffffffffffffffffffffffffffffffffffffff1673ffffffffffffffffffffffffffffffffffffffff1681526020016002820160009054906101000a900473ffffffffffffffffffffffffffffffffffffffff1673ffffffffffffffffffffffffffffffffffffffff1673ffffffffffffffffffffffffffffffffffffffff168152602001600382015481526020016004820160009054906101000a900460ff1615151515815250508486815181106108eb576108ea613247565b5b602002602001018190525060018561090391906131f1565b945050505b808061091390613276565b91505061074b565b508094505050505090565b606060006109346007611775565b905060008060005b838110156109dd573373ffffffffffffffffffffffffffffffffffffffff16600a600060018461096c91906131f1565b815260200190815260200160002060020160009054906101000a900473ffffffffffffffffffffffffffffffffffffffff1673ffffffffffffffffffffffffffffffffffffffff1614156109ca576001836109c791906131f1565b92505b80806109d590613276565b91505061093c565b5060008267ffffffffffffffff8111156109fa576109f9612cb2565b5b604051908082528060200260200182016040528015610a3357816020015b610a206126d1565b815260200190600190039081610a185790505b50905060005b84811015610c09573373ffffffffffffffffffffffffffffffffffffffff16600a6000600184610a6991906131f1565b815260200190815260200160002060020160009054906101000a900473ffffffffffffffffffffffffffffffffffffffff1673ffffffffffffffffffffffffffffffffffffffff161415610bf6576000600182610ac691906131f1565b90506000600a60008381526020019081526020016000209050806040518060a0016040529081600082015481526020016001820160009054906101000a900473ffffffffffffffffffffffffffffffffffffffff1673ffffffffffffffffffffffffffffffffffffffff1673ffffffffffffffffffffffffffffffffffffffff1681526020016002820160009054906101000a900473ffffffffffffffffffffffffffffffffffffffff1673ffffffffffffffffffffffffffffffffffffffff1673ffffffffffffffffffffffffffffffffffffffff168152602001600382015481526020016004820160009054906101000a900460ff161515151581525050848681518110610bd957610bd8613247565b5b6020026020010181905250600185610bf191906131f1565b945050505b8080610c0190613276565b915050610a39565b508094505050505090565b610c25610c1f6116b4565b82611783565b610c64576040517f08c379a0000000000000000000000000000000000000000000000000000000008152600401610c5b90613331565b60405180910390fd5b610c6f838383611818565b505050565b610c8f838383604051806020016040528060008152506111ab565b505050565b60606000610ca26007611775565b905060008060005b83811015610d4b573373ffffffffffffffffffffffffffffffffffffffff16600a6000600184610cda91906131f1565b815260200190815260200160002060010160009054906101000a900473ffffffffffffffffffffffffffffffffffffffff1673ffffffffffffffffffffffffffffffffffffffff161415610d3857600183610d3591906131f1565b92505b8080610d4390613276565b915050610caa565b5060008267ffffffffffffffff811115610d6857610d67612cb2565b5b604051908082528060200260200182016040528015610da157816020015b610d8e6126d1565b815260200190600190039081610d865790505b50905060005b84811015610f77573373ffffffffffffffffffffffffffffffffffffffff16600a6000600184610dd791906131f1565b815260200190815260200160002060010160009054906101000a900473ffffffffffffffffffffffffffffffffffffffff1673ffffffffffffffffffffffffffffffffffffffff161415610f64576000600182610e3491906131f1565b90506000600a60008381526020019081526020016000209050806040518060a0016040529081600082015481526020016001820160009054906101000a900473ffffffffffffffffffffffffffffffffffffffff1673ffffffffffffffffffffffffffffffffffffffff1673ffffffffffffffffffffffffffffffffffffffff1681526020016002820160009054906101000a900473ffffffffffffffffffffffffffffffffffffffff1673ffffffffffffffffffffffffffffffffffffffff1673ffffffffffffffffffffffffffffffffffffffff168152602001600382015481526020016004820160009054906101000a900460ff161515151581525050848681518110610f4757610f46613247565b5b6020026020010181905250600185610f5f91906131f1565b945050505b8080610f6f90613276565b915050610da7565b508094505050505090565b600080610f8e83611b12565b9050600073ffffffffffffffffffffffffffffffffffffffff168173ffffffffffffffffffffffffffffffffffffffff161415611000576040517f08c379a0000000000000000000000000000000000000000000000000000000008152600401610ff79061339d565b60405180910390fd5b80915050919050565b60008073ffffffffffffffffffffffffffffffffffffffff168273ffffffffffffffffffffffffffffffffffffffff16141561107a576040517f08c379a00000000000000000000000000000000000000000000000000000000081526004016110719061342f565b60405180910390fd5b600360008373ffffffffffffffffffffffffffffffffffffffff1673ffffffffffffffffffffffffffffffffffffffff168152602001908152602001600020549050919050565b60006110cd6007611b4f565b60006110d96007611775565b90506110e53382611b65565b6110ef8185611d83565b6110f98184611e2e565b8091505092915050565b60606001805461111290613038565b80601f016020809104026020016040519081016040528092919081815260200182805461113e90613038565b801561118b5780601f106111605761010080835404028352916020019161118b565b820191906000526020600020905b81548152906001019060200180831161116e57829003601f168201915b5050505050905090565b6111a76111a06116b4565b8383611fed565b5050565b6111bc6111b66116b4565b83611783565b6111fb576040517f08c379a00000000000000000000000000000000000000000000000000000000081526004016111f290613331565b60405180910390fd5b6112078484848461215a565b50505050565b6000600a60008381526020019081526020016000206003015490506000600a600084815260200190815260200160002060010160009054906101000a900473ffffffffffffffffffffffffffffffffffffffff1690508134146112a5576040517f08c379a000000000000000000000000000000000000000000000000000000000815260040161129c906134c1565b60405180910390fd5b33600a600085815260200190815260200160002060020160006101000a81548173ffffffffffffffffffffffffffffffffffffffff021916908373ffffffffffffffffffffffffffffffffffffffff1602179055506001600a600085815260200190815260200160002060040160006101000a81548160ff0219169083151502179055506000600a600085815260200190815260200160002060010160006101000a81548173ffffffffffffffffffffffffffffffffffffffff021916908373ffffffffffffffffffffffffffffffffffffffff1602179055506113896008611b4f565b611394303385611818565b8073ffffffffffffffffffffffffffffffffffffffff166108fc349081150290604051600060405180830381858888f193505050501580156113da573d6000803e3d6000fd5b50505050565b60606113eb82611669565b600060066000848152602001908152602001600020805461140b90613038565b80601f016020809104026020016040519081016040528092919081815260200182805461143790613038565b80156114845780601f1061145957610100808354040283529160200191611484565b820191906000526020600020905b81548152906001019060200180831161146757829003601f168201915b5050505050905060006114956121b6565b90506000815114156114ab5781925050506114ee565b6000825111156114e05780826040516020016114c892919061351d565b604051602081830303815290604052925050506114ee565b6114e9846121cd565b925050505b919050565b6000600560008473ffffffffffffffffffffffffffffffffffffffff1673ffffffffffffffffffffffffffffffffffffffff16815260200190815260200160002060008373ffffffffffffffffffffffffffffffffffffffff1673ffffffffffffffffffffffffffffffffffffffff16815260200190815260200160002060009054906101000a900460ff16905092915050565b60007f80ac58cd000000000000000000000000000000000000000000000000000000007bffffffffffffffffffffffffffffffffffffffffffffffffffffffff1916827bffffffffffffffffffffffffffffffffffffffffffffffffffffffff1916148061165257507f5b5e139f000000000000000000000000000000000000000000000000000000007bffffffffffffffffffffffffffffffffffffffffffffffffffffffff1916827bffffffffffffffffffffffffffffffffffffffffffffffffffffffff1916145b80611662575061166182612235565b5b9050919050565b6116728161229f565b6116b1576040517f08c379a00000000000000000000000000000000000000000000000000000000081526004016116a89061339d565b60405180910390fd5b50565b600033905090565b816004600083815260200190815260200160002060006101000a81548173ffffffffffffffffffffffffffffffffffffffff021916908373ffffffffffffffffffffffffffffffffffffffff160217905550808273ffffffffffffffffffffffffffffffffffffffff1661172f83610f82565b73ffffffffffffffffffffffffffffffffffffffff167f8c5be1e5ebec7d5bd14f71427d1e84f3dd0314c0f7b2291e5b200ac8c7c3b92560405160405180910390a45050565b600081600001549050919050565b60008061178f83610f82565b90508073ffffffffffffffffffffffffffffffffffffffff168473ffffffffffffffffffffffffffffffffffffffff1614806117d157506117d081856114f3565b5b8061180f57508373ffffffffffffffffffffffffffffffffffffffff166117f78461055f565b73ffffffffffffffffffffffffffffffffffffffff16145b91505092915050565b8273ffffffffffffffffffffffffffffffffffffffff1661183882610f82565b73ffffffffffffffffffffffffffffffffffffffff161461188e576040517f08c379a0000000000000000000000000000000000000000000000000000000008152600401611885906135b3565b60405180910390fd5b600073ffffffffffffffffffffffffffffffffffffffff168273ffffffffffffffffffffffffffffffffffffffff1614156118fe576040517f08c379a00000000000000000000000000000000000000000000000000000000081526004016118f590613645565b60405180910390fd5b61190b83838360016122e0565b8273ffffffffffffffffffffffffffffffffffffffff1661192b82610f82565b73ffffffffffffffffffffffffffffffffffffffff1614611981576040517f08c379a0000000000000000000000000000000000000000000000000000000008152600401611978906135b3565b60405180910390fd5b6004600082815260200190815260200160002060006101000a81549073ffffffffffffffffffffffffffffffffffffffff02191690556001600360008573ffffffffffffffffffffffffffffffffffffffff1673ffffffffffffffffffffffffffffffffffffffff168152602001908152602001600020600082825403925050819055506001600360008473ffffffffffffffffffffffffffffffffffffffff1673ffffffffffffffffffffffffffffffffffffffff16815260200190815260200160002060008282540192505081905550816002600083815260200190815260200160002060006101000a81548173ffffffffffffffffffffffffffffffffffffffff021916908373ffffffffffffffffffffffffffffffffffffffff160217905550808273ffffffffffffffffffffffffffffffffffffffff168473ffffffffffffffffffffffffffffffffffffffff167fddf252ad1be2c89b69c2b068fc378daa952ba7f163c4a11628f55a4df523b3ef60405160405180910390a4611b0d83838360016122e6565b505050565b60006002600083815260200190815260200160002060009054906101000a900473ffffffffffffffffffffffffffffffffffffffff169050919050565b6001816000016000828254019250508190555050565b600073ffffffffffffffffffffffffffffffffffffffff168273ffffffffffffffffffffffffffffffffffffffff161415611bd5576040517f08c379a0000000000000000000000000000000000000000000000000000000008152600401611bcc906136b1565b60405180910390fd5b611bde8161229f565b15611c1e576040517f08c379a0000000000000000000000000000000000000000000000000000000008152600401611c159061371d565b60405180910390fd5b611c2c6000838360016122e0565b611c358161229f565b15611c75576040517f08c379a0000000000000000000000000000000000000000000000000000000008152600401611c6c9061371d565b60405180910390fd5b6001600360008473ffffffffffffffffffffffffffffffffffffffff1673ffffffffffffffffffffffffffffffffffffffff16815260200190815260200160002060008282540192505081905550816002600083815260200190815260200160002060006101000a81548173ffffffffffffffffffffffffffffffffffffffff021916908373ffffffffffffffffffffffffffffffffffffffff160217905550808273ffffffffffffffffffffffffffffffffffffffff16600073ffffffffffffffffffffffffffffffffffffffff167fddf252ad1be2c89b69c2b068fc378daa952ba7f163c4a11628f55a4df523b3ef60405160405180910390a4611d7f6000838360016122e6565b5050565b611d8c8261229f565b611dcb576040517f08c379a0000000000000000000000000000000000000000000000000000000008152600401611dc2906137af565b60405180910390fd5b80600660008481526020019081526020016000209080519060200190611df292919061272e565b507ff8e1a15aba9398e019f0b49df1a4fde98ee17ae345cb5f6b5e2c27f5033e8ce782604051611e229190612c8d565b60405180910390a15050565b60008111611e71576040517f08c379a0000000000000000000000000000000000000000000000000000000008152600401611e689061381b565b60405180910390fd5b6040518060a001604052808381526020013373ffffffffffffffffffffffffffffffffffffffff1681526020013073ffffffffffffffffffffffffffffffffffffffff16815260200182815260200160001515815250600a60008481526020019081526020016000206000820151816000015560208201518160010160006101000a81548173ffffffffffffffffffffffffffffffffffffffff021916908373ffffffffffffffffffffffffffffffffffffffff16021790555060408201518160020160006101000a81548173ffffffffffffffffffffffffffffffffffffffff021916908373ffffffffffffffffffffffffffffffffffffffff1602179055506060820151816003015560808201518160040160006101000a81548160ff021916908315150217905550905050611faa333084611818565b817fb640004f1d14576d0c209e240cad0410e0d8c0c33a09375861fbadae2588a98d3330846000604051611fe1949392919061383b565b60405180910390a25050565b8173ffffffffffffffffffffffffffffffffffffffff168373ffffffffffffffffffffffffffffffffffffffff16141561205c576040517f08c379a0000000000000000000000000000000000000000000000000000000008152600401612053906138cc565b60405180910390fd5b80600560008573ffffffffffffffffffffffffffffffffffffffff1673ffffffffffffffffffffffffffffffffffffffff16815260200190815260200160002060008473ffffffffffffffffffffffffffffffffffffffff1673ffffffffffffffffffffffffffffffffffffffff16815260200190815260200160002060006101000a81548160ff0219169083151502179055508173ffffffffffffffffffffffffffffffffffffffff168373ffffffffffffffffffffffffffffffffffffffff167f17307eab39ab6107e8899845ad3d59bd9653f200f220920489ca2b5937696c318360405161214d9190612885565b60405180910390a3505050565b612165848484611818565b612171848484846122ec565b6121b0576040517f08c379a00000000000000000000000000000000000000000000000000000000081526004016121a79061395e565b60405180910390fd5b50505050565b606060405180602001604052806000815250905090565b60606121d882611669565b60006121e26121b6565b90506000815111612202576040518060200160405280600081525061222d565b8061220c84612483565b60405160200161221d92919061351d565b6040516020818303038152906040525b915050919050565b60007f01ffc9a7000000000000000000000000000000000000000000000000000000007bffffffffffffffffffffffffffffffffffffffffffffffffffffffff1916827bffffffffffffffffffffffffffffffffffffffffffffffffffffffff1916149050919050565b60008073ffffffffffffffffffffffffffffffffffffffff166122c183611b12565b73ffffffffffffffffffffffffffffffffffffffff1614159050919050565b50505050565b50505050565b600061230d8473ffffffffffffffffffffffffffffffffffffffff1661255b565b15612476578373ffffffffffffffffffffffffffffffffffffffff1663150b7a026123366116b4565b8786866040518563ffffffff1660e01b815260040161235894939291906139d3565b602060405180830381600087803b15801561237257600080fd5b505af19250505080156123a357506040513d601f19601f820116820180604052508101906123a09190613a34565b60015b612426573d80600081146123d3576040519150601f19603f3d011682016040523d82523d6000602084013e6123d8565b606091505b5060008151141561241e576040517f08c379a00000000000000000000000000000000000000000000000000000000081526004016124159061395e565b60405180910390fd5b805181602001fd5b63150b7a0260e01b7bffffffffffffffffffffffffffffffffffffffffffffffffffffffff1916817bffffffffffffffffffffffffffffffffffffffffffffffffffffffff19161491505061247b565b600190505b949350505050565b6060600060016124928461257e565b01905060008167ffffffffffffffff8111156124b1576124b0612cb2565b5b6040519080825280601f01601f1916602001820160405280156124e35781602001600182028036833780820191505090505b509050600082602001820190505b600115612550578080600190039150507f3031323334353637383961626364656600000000000000000000000000000000600a86061a8153600a858161253a57612539613a61565b5b049450600085141561254b57612550565b6124f1565b819350505050919050565b6000808273ffffffffffffffffffffffffffffffffffffffff163b119050919050565b600080600090507a184f03e93ff9f4daa797ed6e38ed64bf6a1f01000000000000000083106125dc577a184f03e93ff9f4daa797ed6e38ed64bf6a1f01000000000000000083816125d2576125d1613a61565b5b0492506040810190505b6d04ee2d6d415b85acef81000000008310612619576d04ee2d6d415b85acef8100000000838161260f5761260e613a61565b5b0492506020810190505b662386f26fc10000831061264857662386f26fc10000838161263e5761263d613a61565b5b0492506010810190505b6305f5e1008310612671576305f5e100838161266757612666613a61565b5b0492506008810190505b612710831061269657612710838161268c5761268b613a61565b5b0492506004810190505b606483106126b957606483816126af576126ae613a61565b5b0492506002810190505b600a83106126c8576001810190505b80915050919050565b6040518060a0016040528060008152602001600073ffffffffffffffffffffffffffffffffffffffff168152602001600073ffffffffffffffffffffffffffffffffffffffff168152602001600081526020016000151581525090565b82805461273a90613038565b90600052602060002090601f01602090048101928261275c57600085556127a3565b82601f1061277557805160ff19168380011785556127a3565b828001600101855582156127a3579182015b828111156127a2578251825591602001919060010190612787565b5b5090506127b091906127b4565b5090565b5b808211156127cd5760008160009055506001016127b5565b5090565b6000604051905090565b600080fd5b600080fd5b60007fffffffff0000000000000000000000000000000000000000000000000000000082169050919050565b61281a816127e5565b811461282557600080fd5b50565b60008135905061283781612811565b92915050565b600060208284031215612853576128526127db565b5b600061286184828501612828565b91505092915050565b60008115159050919050565b61287f8161286a565b82525050565b600060208201905061289a6000830184612876565b92915050565b600081519050919050565b600082825260208201905092915050565b60005b838110156128da5780820151818401526020810190506128bf565b838111156128e9576000848401525b50505050565b6000601f19601f8301169050919050565b600061290b826128a0565b61291581856128ab565b93506129258185602086016128bc565b61292e816128ef565b840191505092915050565b600060208201905081810360008301526129538184612900565b905092915050565b6000819050919050565b61296e8161295b565b811461297957600080fd5b50565b60008135905061298b81612965565b92915050565b6000602082840312156129a7576129a66127db565b5b60006129b58482850161297c565b91505092915050565b600073ffffffffffffffffffffffffffffffffffffffff82169050919050565b60006129e9826129be565b9050919050565b6129f9816129de565b82525050565b6000602082019050612a1460008301846129f0565b92915050565b612a23816129de565b8114612a2e57600080fd5b50565b600081359050612a4081612a1a565b92915050565b60008060408385031215612a5d57612a5c6127db565b5b6000612a6b85828601612a31565b9250506020612a7c8582860161297c565b9150509250929050565b600081519050919050565b600082825260208201905092915050565b6000819050602082019050919050565b612abb8161295b565b82525050565b6000612acc826129be565b9050919050565b612adc81612ac1565b82525050565b612aeb8161286a565b82525050565b60a082016000820151612b076000850182612ab2565b506020820151612b1a6020850182612ad3565b506040820151612b2d6040850182612ad3565b506060820151612b406060850182612ab2565b506080820151612b536080850182612ae2565b50505050565b6000612b658383612af1565b60a08301905092915050565b6000602082019050919050565b6000612b8982612a86565b612b938185612a91565b9350612b9e83612aa2565b8060005b83811015612bcf578151612bb68882612b59565b9750612bc183612b71565b925050600181019050612ba2565b5085935050505092915050565b60006020820190508181036000830152612bf68184612b7e565b905092915050565b600080600060608486031215612c1757612c166127db565b5b6000612c2586828701612a31565b9350506020612c3686828701612a31565b9250506040612c478682870161297c565b9150509250925092565b600060208284031215612c6757612c666127db565b5b6000612c7584828501612a31565b91505092915050565b612c878161295b565b82525050565b6000602082019050612ca26000830184612c7e565b92915050565b600080fd5b600080fd5b7f4e487b7100000000000000000000000000000000000000000000000000000000600052604160045260246000fd5b612cea826128ef565b810181811067ffffffffffffffff82111715612d0957612d08612cb2565b5b80604052505050565b6000612d1c6127d1565b9050612d288282612ce1565b919050565b600067ffffffffffffffff821115612d4857612d47612cb2565b5b612d51826128ef565b9050602081019050919050565b82818337600083830152505050565b6000612d80612d7b84612d2d565b612d12565b905082815260208101848484011115612d9c57612d9b612cad565b5b612da7848285612d5e565b509392505050565b600082601f830112612dc457612dc3612ca8565b5b8135612dd4848260208601612d6d565b91505092915050565b60008060408385031215612df457612df36127db565b5b600083013567ffffffffffffffff811115612e1257612e116127e0565b5b612e1e85828601612daf565b9250506020612e2f8582860161297c565b9150509250929050565b612e428161286a565b8114612e4d57600080fd5b50565b600081359050612e5f81612e39565b92915050565b60008060408385031215612e7c57612e7b6127db565b5b6000612e8a85828601612a31565b9250506020612e9b85828601612e50565b9150509250929050565b600067ffffffffffffffff821115612ec057612ebf612cb2565b5b612ec9826128ef565b9050602081019050919050565b6000612ee9612ee484612ea5565b612d12565b905082815260208101848484011115612f0557612f04612cad565b5b612f10848285612d5e565b509392505050565b600082601f830112612f2d57612f2c612ca8565b5b8135612f3d848260208601612ed6565b91505092915050565b60008060008060808587031215612f6057612f5f6127db565b5b6000612f6e87828801612a31565b9450506020612f7f87828801612a31565b9350506040612f908782880161297c565b925050606085013567ffffffffffffffff811115612fb157612fb06127e0565b5b612fbd87828801612f18565b91505092959194509250565b60008060408385031215612fe057612fdf6127db565b5b6000612fee85828601612a31565b9250506020612fff85828601612a31565b9150509250929050565b7f4e487b7100000000000000000000000000000000000000000000000000000000600052602260045260246000fd5b6000600282049050600182168061305057607f821691505b6020821081141561306457613063613009565b5b50919050565b7f4552433732313a20617070726f76616c20746f2063757272656e74206f776e6560008201527f7200000000000000000000000000000000000000000000000000000000000000602082015250565b60006130c66021836128ab565b91506130d18261306a565b604082019050919050565b600060208201905081810360008301526130f5816130b9565b9050919050565b7f4552433732313a20617070726f76652063616c6c6572206973206e6f7420746f60008201527f6b656e206f776e6572206f7220617070726f76656420666f7220616c6c000000602082015250565b6000613158603d836128ab565b9150613163826130fc565b604082019050919050565b600060208201905081810360008301526131878161314b565b9050919050565b7f4e487b7100000000000000000000000000000000000000000000000000000000600052601160045260246000fd5b60006131c88261295b565b91506131d38361295b565b9250828210156131e6576131e561318e565b5b828203905092915050565b60006131fc8261295b565b91506132078361295b565b9250827fffffffffffffffffffffffffffffffffffffffffffffffffffffffffffffffff0382111561323c5761323b61318e565b5b828201905092915050565b7f4e487b7100000000000000000000000000000000000000000000000000000000600052603260045260246000fd5b60006132818261295b565b91507fffffffffffffffffffffffffffffffffffffffffffffffffffffffffffffffff8214156132b4576132b361318e565b5b600182019050919050565b7f4552433732313a2063616c6c6572206973206e6f7420746f6b656e206f776e6560008201527f72206f7220617070726f76656400000000000000000000000000000000000000602082015250565b600061331b602d836128ab565b9150613326826132bf565b604082019050919050565b6000602082019050818103600083015261334a8161330e565b9050919050565b7f4552433732313a20696e76616c696420746f6b656e2049440000000000000000600082015250565b60006133876018836128ab565b915061339282613351565b602082019050919050565b600060208201905081810360008301526133b68161337a565b9050919050565b7f4552433732313a2061646472657373207a65726f206973206e6f74206120766160008201527f6c6964206f776e65720000000000000000000000000000000000000000000000602082015250565b60006134196029836128ab565b9150613424826133bd565b604082019050919050565b600060208201905081810360008301526134488161340c565b9050919050565b7f506c65617365207375626d6974207468652061736b696e67207072696365206960008201527f6e206f7264657220746f20636f6d706c65746520746865207075726368617365602082015250565b60006134ab6040836128ab565b91506134b68261344f565b604082019050919050565b600060208201905081810360008301526134da8161349e565b9050919050565b600081905092915050565b60006134f7826128a0565b61350181856134e1565b93506135118185602086016128bc565b80840191505092915050565b600061352982856134ec565b915061353582846134ec565b91508190509392505050565b7f4552433732313a207472616e736665722066726f6d20696e636f72726563742060008201527f6f776e6572000000000000000000000000000000000000000000000000000000602082015250565b600061359d6025836128ab565b91506135a882613541565b604082019050919050565b600060208201905081810360008301526135cc81613590565b9050919050565b7f4552433732313a207472616e7366657220746f20746865207a65726f2061646460008201527f7265737300000000000000000000000000000000000000000000000000000000602082015250565b600061362f6024836128ab565b915061363a826135d3565b604082019050919050565b6000602082019050818103600083015261365e81613622565b9050919050565b7f4552433732313a206d696e7420746f20746865207a65726f2061646472657373600082015250565b600061369b6020836128ab565b91506136a682613665565b602082019050919050565b600060208201905081810360008301526136ca8161368e565b9050919050565b7f4552433732313a20746f6b656e20616c7265616479206d696e74656400000000600082015250565b6000613707601c836128ab565b9150613712826136d1565b602082019050919050565b60006020820190508181036000830152613736816136fa565b9050919050565b7f45524337323155524953746f726167653a2055524920736574206f66206e6f6e60008201527f6578697374656e7420746f6b656e000000000000000000000000000000000000602082015250565b6000613799602e836128ab565b91506137a48261373d565b604082019050919050565b600060208201905081810360008301526137c88161378c565b9050919050565b7f5072696365206d757374206265206174206c6561737420312077656900000000600082015250565b6000613805601c836128ab565b9150613810826137cf565b602082019050919050565b60006020820190508181036000830152613834816137f8565b9050919050565b600060808201905061385060008301876129f0565b61385d60208301866129f0565b61386a6040830185612c7e565b6138776060830184612876565b95945050505050565b7f4552433732313a20617070726f766520746f2063616c6c657200000000000000600082015250565b60006138b66019836128ab565b91506138c182613880565b602082019050919050565b600060208201905081810360008301526138e5816138a9565b9050919050565b7f4552433732313a207472616e7366657220746f206e6f6e20455243373231526560008201527f63656976657220696d706c656d656e7465720000000000000000000000000000602082015250565b60006139486032836128ab565b9150613953826138ec565b604082019050919050565b600060208201905081810360008301526139778161393b565b9050919050565b600081519050919050565b600082825260208201905092915050565b60006139a58261397e565b6139af8185613989565b93506139bf8185602086016128bc565b6139c8816128ef565b840191505092915050565b60006080820190506139e860008301876129f0565b6139f560208301866129f0565b613a026040830185612c7e565b8181036060830152613a14818461399a565b905095945050505050565b600081519050613a2e81612811565b92915050565b600060208284031215613a4a57613a496127db565b5b6000613a5884828501613a1f565b91505092915050565b7f4e487b7100000000000000000000000000000000000000000000000000000000600052601260045260246000fdfea264697066735822122095298f916b80e68b11668a8c2752bd352baef41181406e69ec48e76ac25422a664736f6c63430008090033",
  "linkReferences": {},
  "deployedLinkReferences": {}
}